S00C0000546573742E7372656378
S113000012C02CC02BC0BEC029C028C027C026C027
S113001025C024C023C023C021C020C01FC01EC0CF
S11300201DC01CC01BC011241FBECFE5D4E0DEBF21
S1130030CDBF10E0A0E6B0E0EAE1FBE002C005902D
S11300400D92A436B107D9F720E0A4E6B0E001C0D0
S11300501D92A538B207E1F7F3D15DC5D1CF1F9248
S11300600F920FB60F9211242F933F938F939F9368
S1130070EF93FF938CB18093840090917F00911152
S113008016C02091780030917900232BB9F421E037
S113009030E03093790020937800843679F4E0914D
S11300A07A00F0917B00E158FF4F808307C0E09114
S11300B07A00F0917B00E158FF4F808380917A00B1
S11300C090917B00019690937B0080937A00FF913E
S11300D0EF919F918F913F912F910F900FBE0F90B1
S11300E01F90189583E389B98AB188698AB980B564
S11300F0866880BD08955D9BFECF8CB90895EF920C
S1130100FF920F931F93CF93DF937C01C0E0D0E065
S113011009C087010C0F1D1FF8018081ECDFF80175
S113012010822196C330D105A4F310927900109265
S11301307800DF91CF911F910F91FF90EF90089578
S1130140FC018FEF9FEF19C0DF01119620818227F8
S113015020E030E00DC080FF07C09695879551E000
S1130160852750EA952702C0969587952F5F3F4FC4
S11301702830310584F3642FFD014FEF460F6111E0
S1130180E3CF08951F920F920FB60F9211245F933D
S11301906F937F938F939F93AF93BF9380917400DA
S11301A0909175000196909375008093740060910E
S11301B062007091630088D4892B19F482B380643F
S11301C082BB6091620070916300660F771F80911B
S11301D074009091750078D4892B39F482B38F7BA5
S11301E082BB1092750010927400809170009091FF
S11301F07100019731F58091720090917300892B01
S113020001F582B3806882BB80917600909177007B
S113021001969093770080937600609160007091CE
S1130220610052D4892B69F481E090E090937300CB
S11302308093720082B38F7782BB10927700109202
S11302407600BF91AF919F918F917F916F915F9154
S11302500F900FBE0F901F9018958F929F92AF92A0
S1130260BF92CF92DF92EF92FF92CF93DF936B0115
S11302707C0186B1806486B9812C912C5401C0E044
S1130280D0E026C0349B24C064B175B180E090E016
S11302902AD320E030E040EA50E4B3D320E030E059
S11302A04AE754E4AED320E030E040E85AE3A9D36F
S11302B020E030E040E851E4A4D39B01AC01C50147
S11302C0B40114D24B015C01219686B1806186B9D8
S11302D0C233D105BCF2BE01DD0F880B990B05D3E7
S11302E09B01AC01C501B40165D2CCD2A701960132
S11302F0261B370B480B590BCA01B901E4E6F0E0A1
S11303002483358346835783C080D180E280F38081
S11303102C193D094E095F0969017A01208731874B
S1130320428753876083718382839383DED22CEB6D
S113033034E743E95BE365D34B015C01C701B601D4
S1130340D4D22CEB34E743E95CE35BD39B01AC01EF
S1130350C501B401CBD196D22AB53BB5260F371FC0
S11303603BBD2ABD672B41F48091600090916100F0
S11303709093630080936200DF91CF91FF90EF90A0
S1130380DF90CF90BF90AF909F908F900895CF92C1
S1130390DF92EF92FF9288309105A8F086349105A0
S11303A0E8F0803822E0920720F18C3027E19207B0
S11303B048F188352BE1920770F5C12CD12C7601D8
S11303C06894F6F830C00F2EFFE8CF2EFEE9DF2E3A
S11303D0FCEDEF2EF5E4FF2EF02D25C00F2EFDECE5
S11303E0CF2EFCE4DF2EF1E6EF2EF4E4FF2EF02D09
S11303F01AC00F2EC12CD12CFAECEF2EF2E4FF2EF2
S1130400F02D11C00F2EC12CD12CF0E3EF2EF1E40E
S1130410FF2EF02D08C00F2EC12CD12CF0E8EF2EAA
S1130420FFE3FF2EF02DBC0180E090E05CD2A70139
S11304309601E7D227D2FF90EF90DF90CF900895F6
S113044081B3806C81BB82B38F7382BB8FEF87BB18
S113045018BA84B38E7F84BB45DE85B58F7B85BD9A
S113046085B5886085BD85B58E7F85BD85B586607B
S113047085BD14BC8CE783BD89B7806889BF89B703
S11304808F7B89BF86B1806886B986B1806286B960
S113049086B18E7F86B986B1866086B987B180645D
S11304A087B987B18F7787B987B18F7D87B987B1CE
S11304B0807F87B97894E12CF12C00E010E0C12C06
S11304C0D12CC0E0D0E080917A0090917B00059718
S11304D009F05FC063E08FE790E032DEEFE7F0E021
S11304E04381248130E0322F2227240F311D8217CB
S11304F0930779F580917F00843659F507C0FC0194
S1130500E458FF4F21E02083019602C080E090E090
S113051083309105A4F381E090E09093710080937F
S113052070001092730010927200EFE7F0E0818186
S1130530C281D0E0DC2FCC27C80FD11D8091600090
S11305409091610065E070E0BFD2709363006093A6
S113055062008CE790E0D3DD80E090E005C0FC0110
S1130560E158FF4F1082019685309105C4F3109233
S11305707B0010927A00E4E6F0E01082118212828D
S113058013821482158216821782108611861286AF
S113059013868091700090917100019709F093CFB8
S11305A0C114D10431F58FB58F7B8FBD8FB58068B1
S11305B08FBD8FB58E7F8FBD8FB58D7F8FBD8EB56F
S11305C0877F8EBD8EB580618EBD8EB581608EBDF8
S11305D08EB58D7F8EBD8EB58B7F8EBD86E990E006
S11305E09BBD8ABD80ED97E097BD86BDCC24C394A6
S11305F0D12C0F5F1F4FC830D10580F488B38068B9
S113060088BBC80164E670E05FD2892B09F060C042
S113061088B3837888BB00E010E05AC0C634D105A3
S113062080F488B3806488BBC80164E670E04CD26F
S1130630892B09F04DC088B3837488BB00E010E0B7
S113064047C0C03822E0D20778F488B3806288BB00
S1130650C80164E670E038D2892BD1F588B383727F
S113066088BB00E010E034C0CC3087E1D80778F4D0
S113067088B3806188BBC80164E670E025D2892B09
S113068039F588B3837188BB00E010E021C0C83518
S11306902BE1D20778F488B3886088BBC80164E68C
S11306A070E012D2892BA1F488B38B7088BB00E070
S11306B010E00EC088B3846088BBC80164E670E0B3
S11306C003D2892B29F488B3877088BB00E010E03B
S11306D0CE015DDE28E2E216F10419F4BEDDE12C60
S11306E0F12C8FEFE81AF80AEECE5058BB27AA2750
S11306F00ED04DC13ED130F043D120F031F49F3FB4
S113070011F41EF433C10EF4E095E7FB29C1E92F7F
S11307104FD180F3BA17620773078407950718F05F
S113072071F49EF567C10EF4E0950B2EBA2FA02D3F
S11307300B01B90190010C01CA01A0011124FF278A
S1130740591B99F0593F50F4503E68F11A16F04085
S1130750A22F232F342F4427585FF3CF4695379584
S11307602795A795F0405395C9F77EF41F16BA0B49
S1130770620B730B840BBAF09150A1F0FF0FBB1FF7
S1130780661F771F881FC2F70EC0BA0F621F731F40
S1130790841F48F4879577956795B795F7959E3F9D
S11307A008F0B3CF9395880F08F09927EE0F97952B
S11307B0879508950CD0EBC0E3D040F0DAD030F048
S11307C021F45F3F19F0CCC0511115C1CFC0F0D056
S11307D098F39923C9F35523B1F3951B550BBB2704
S11307E0AA2762177307840738F09F5F5F4F220FB1
S11307F0331F441FAA1FA9F333D00E2E3AF0E0E8AA
S113080030D091505040E695001CCAF729D0FE2FF5
S113081027D0660F771F881FBB1F26173707480787
S1130820AB07B0E809F0BB0B802DBF01FF2793583D
S11308305F4F2AF09E3F510568F092C0DCC05F3FD5
S1130840ECF3983EDCF3869577956795B795F79525
S11308509F5FC9F7880F911D9695879597F908951D
S1130860E1E0660F771F881FBB1F621773078407B9
S1130870BA0720F0621B730B840BBA0BEE1F88F7C8
S1130880E095089504D06894B111B5C0089598D046
S113089088F09F5790F0B92F9927B751A0F0D1F065
S11308A0660F771F881F991F1AF0BA95C9F712C0EF
S11308B0B13081F09FD0B1E008959CC0672F782FAC
S11308C08827B85F39F0B93FCCF38695779567955B
S11308D0B395D9F73EF490958095709561957F4FC7
S11308E08F4F9F4F0895E89409C097FB3EF490956D
S11308F08095709561957F4F8F4F9F4F9923A9F0F5
S1130900F92F96E9BB279395F69587957795679583
S1130910B795F111F8CFFAF4BB0F11F460FF1BC0C7
S11309206F5F7F4F8F4F9F4F16C0882311F096E95A
S113093011C0772321F09EE8872F762F05C0662308
S113094071F096E8862F70E060E02AF09A95660FC1
S1130950771F881FDAF7880F9695879597F908957A
S113096097F99F6780E870E060E008959FEF80EC5E
S1130970089500240A941616170618060906089501
S113098000240A9412161306140605060895092E67
S11309900394000C11F4882352F0BB0F40F4BF2BD6
S11309A011F460FF04C06F5F7F4F8F4F9F4F089516
S11309B057FD9058440F551F59F05F3F71F047950C
S11309C0880F97FB991F61F09F3F79F087950895F1
S11309D0121613061406551FF2CF4695F1DF08C010
S11309E0161617061806991FF1CF8695710561052D
S11309F008940895E894BB2766277727CB0197F9D5
S1130A0008950BD0C4CFB5DF28F0BADF18F09523D2
S1130A1009F0A6CFABCF1124EECFCADFA0F3959F88
S1130A20D1F3950F50E0551F629FF001729FBB27D1
S1130A30F00DB11D639FAA27F00DB11DAA1F649F7D
S1130A406627B00DA11D661F829F2227B00DA11D30
S1130A50621F739FB00DA11D621F839FA00D611DB6
S1130A60221F749F3327A00D611D231F849F600DD7
S1130A70211D822F762F6A2F11249F5750408AF010
S1130A80E1F088234AF0EE0FFF1FBB1F661F771F9C
S1130A90881F91505040A9F79E3F510570F060CFD8
S1130AA0AACF5F3FECF3983EDCF386957795679584
S1130AB0B795F795E7959F5FC1F7FE2B880F911DBA
S1130AC09695879597F9089597FB072E16F4009449
S1130AD006D077FD08D00BD007FC05D03EF49095E6
S1130AE081959F4F0895709561957F4F0895AA1B36
S1130AF0BB1B51E107C0AA1FBB1FA617B70710F005
S1130B00A61BB70B881F991F5A95A9F78095909536
S10D0B10BC01CD010895F894FFCF55
S1070B1A7D0019003D
S9030000FC
